:020000040800F2
:1000000000800120092A0008552A00088102000802
:10001000890200089102000899020008000000000F
:1000200000000000000000000000000031B50008E2
:10003000552A000800000000EDB400082DB40008A7
:10004000552A0008552A0008552A0008552A000894
:10005000552A0008552A0008552A0008552A000884
:10006000552A0008552A0008552A0008552A000874
:10007000552A0008552A0008552A0008552A000864
:10008000552A0008552A0008552A000800000000DB
:10009000000000000000000000000000552A0008D9
:1000A000552A0008552A0008552A0008552A000834
:1000B000552A0008552A0008552A0008552A000824
:1000C000552A0008552A0008552A0008552A000814
:1000D000552A0008552A0008552A0008000000008B
:1000E000552A0008552A0008552A0008000000007B
:1000F000000000000000000000000000552A000879
:1001000000000000552A0008552A0008552A00085A
:1001100000000000000000000000000000000000DF
:10012000552A0008552A0008552A0008552A0008B3
:10013000552A000800000000000000000000000038
:10014000000000000000000000000000552A000828
:10015000552A0008552A0008552A0008552A000883
:10016000552A0008552A0008000000000000000081
:10017000000000000000000000000000000000007F
:1001800000000000552A00080000000000000000E8
:10019000552A000810B5054C237833B9044B13B128
:1001A0000448AFF300800123237010BD38080020FD
:1001B0000000000008ED000808B5034B1BB103491F
:1001C0000348AFF3008008BD000000003C08002099
:1001D00008ED0008A3F5803A704700BF174B002BCD
:1001E00008BF134B9D46FFF7F5FF00218B460F46D6
:1001F0001348144A121A0DF06FF80E4B002B00D062
:1002000098470D4B002B00D0984700200021040098
:100210000D000D48002802D00C48AFF300800CF010
:1002200051FF2000290004F0A7FF0CF043FB00BFA2
:100230000000080000000000AD1800080080012048
:1002400038080020102600200000000000000000F8
:100250000346006818B9186808B9181D1860704777
:10026000C36810B504460BB19B689847204610BD83
:10027000024B1B6803B11847704700BF54080020A9
:100280004FF0100300F00CB84FF0200300F008B856
:100290004FF0300300F004B84FF0400300F000B816
:1002A000EFF308804FF0040172460A4201D0EFF3E9
:1002B00009809C46254B196802680A60043142682F
:1002C0000A60043182680A600431C2680A6004313D
:1002D000F0C147460F6004314F460F600431574666
:1002E0000F6004315F460F60043102690A60083113
:1002F00042690A60043182690A600431C2690A6095
:100300000431034620334FF40076324200D00433E8
:1003100075464FF01006354200D148330C46103C6C
:100320002360EFF309820A600431EFF308820A6068
:10033000043172460A600431EFF314820A606046A9
:10034000024B196800F066FEFEE70000B8E4000802
:10035000007B704738B50B4B03600023C0E90131C7
:1003600004460D4602730848FFF772FF45B1074B7C
:100370001A6862601C600448FFF76AFF204638BDB7
:100380006560F8E740E100085C080020580800209C
:1003900010B5124B036004461148FFF759FFA368DC
:1003A0002BB1104962680B68A34210D10A600E4B52
:1003B0000B481A68A24204BF00221A60FFF748FFE8
:1003C000237B13B9201F01F071F9204610BD194697
:1003D0005B68A342FBD14A60E9E700BF40E1000847
:1003E0005C080020580800206408002010B504466E
:1003F000FFF7CEFF2046102101F054F9204610BD32
:10040000F8B5064614480D46FFF722FF134B1C684B
:1004100094B1A76877B138460DF029FBA84209D1FD
:100420002A46314638460CF03BFF18B90A48FFF718
:100430000FFF0FE06468EBE7072DF7D108482A4665
:1004400031460CF02DFF0028F0D10348FFF700FFE4
:10045000044B1C682046F8BD5C08002058080020AA
:1004600030E1000864080020002070470020704739
:10047000036801221B6900211847036800221B69D9
:10048000114618476FF01500704703681B6918473D
:1004900003689B69184703689B6A184700290CBFCB
:1004A0006FF0180000207047012070476FF01500B2
:1004B00070476FF015007047112070477047036850
:1004C00070B51B690122002104469847051E0DDB0B
:1004D000236802221B6900212046984723680646AC
:1004E00029461B690022204698473546284670BD9C
:1004F00070B50D460026C0E900660C490446284642
:100500000DF0BDFA28442060314623681A782F2A5E
:1005100006D101332360FFF773FF6060204670BD92
:10052000002AF8D0013301312360EEE7A4E100088E
:1005300000687047406808B520B1FFF709FF431E07
:100540005842584108BD10B50446FFF7F3FF10B1FB
:10055000606800B1043810BD406808B520B1FFF7ED
:10056000F7FEB0FA80F0400908BD10B50446FFF769
:10057000F3FF10B1606800B1043810BD4068003866
:1005800018BF0120704730B591FAA1F391FAA1F19B
:10059000B3FA83F304685B000325B1FA81F105FA2D
:1005A00003F3490024EA03038A401343036030BD88
:1005B0007FB52B4B002207284FD8DFE800F004124C
:1005C0001E2A364E4E4200921A6B264842F0010215
:1005D0001A631B6B03F001030093009B07B05DF8E7
:1005E00004FB01921A6B204842F002021A631B6B53
:1005F00003F002030193019BF0E702921A6B1B4880
:1006000042F004021A631B6B03F004030293029B83
:10061000E4E703921A6B164842F008021A631B6B58
:1006200003F008030393039BD8E704921A6B114865
:1006300042F010021A631B6B03F010030493049B37
:10064000CCE705921A6B0C4842F080021A631B6BD0
:1006500003F080030593059BC0E7084800F03EFCCB
:10066000003802400000024000040240000802403E
:10067000000C024000100240001C0240A6E10008ED
:1006800010B54FF47071044604F00F0401F04CFBF8
:100690000120A04010BD00004B1C70B504460E4662
:1006A000018216D0C1F30310FFF782FF05463046E2
:1006B000FFF7E6FF238A074A656103F00F03206016
:1006C00052F82330A36105F110031835C4E902552F
:1006D000636070BD78E70008B0F9100001F0A0BBBE
:1006E0000A46D0E905010AB9FFF74DBF0122FBE731
:1006F000224B4C222DE9F04102FB0032204D002418
:1007000094460127DCF8006007FA04F333422BD04B
:10071000536B6E6907FA03F31E4225D0D2F81CE032
:100720006B61566806B3EA6833EA020203D1AA682D
:1007300033EA020214D1124A916833EA010103D16B
:10074000D26833EA02020DD1DEF810201A4214BF3B
:10075000012102210B4B30461B68BDE8F0411847D0
:100760000221F7E70121F5E70134A14202F1040279
:10077000C8D10146044800F0B1FB00BF6808002062
:10078000003C01407C0A0020C7E100080621084621
:10079000FFF7AEBF05210846FFF7AABF01210420DD
:1007A000FFF7A6BF01210320FFF7A2BF012102200E
:1007B000FFF79EBF01210846FFF79ABF01210020E5
:1007C000FFF796BF012910B514D18389154C03F0AA
:1007D0000F039940836832B1A2681143A16043F0CE
:1007E0000103836010BDA26822EA0101A16023F029
:1007F0000103F6E70229F5D181890A4C01F00F03C4
:100800000121994083682AB1E2681143E16043F015
:100810000203E6E7E26822EA0101E16023F0020355
:10082000DFE700BF003C01408389B0F90C1070B5D0
:1008300003F00C0404F1804404F59C3403F00F062B
:1008400003F00303A5689B000F229A40C1F3031134
:1008500025EA020501FA03F32B43A3600F4B0122A3
:100860001968B240114319608468E50742BF99686E
:1008700011439960A10742BFD9680A43DA6090F931
:100880000030002B08DB0122590903F01F0302FA94
:1008900003F3034A42F8213070BD00BF003C014021
:1008A00000E100E02DE9F74F9B464B1C06460C4645
:1008B000904662D000230193314B5A6C42F480423F
:1008C0005A645B6C03F480430193019B2D4B01F050
:1008D0000F090C2202FB0932C1F303105568062DE3
:1008E00048D8DFE805F0043B3D3F41434500264F33
:1008F000FFF75EFE234BB4810C2202FB09F299182C
:100900009C5891F908C0214986F800C04C236B43DC
:10091000012202FA04FECA5875604FF0000A42EA4A
:100920000E02C6F808A0CA50132303FB054501EBCD
:1009300085030CF1100CD861C3F804B0C3F83490EF
:10094000134BC3F80080134B9B68304643F82C7060
:10095000FFF76AFF504603B0BDE8F08F0E4FC7E7C0
:100960000E4FC5E70E4FC3E70E4FC1E70E4FBFE76F
:100970000E4FBDE70E4800F0B1FA0846EBE700BFA6
:100980000038024018E20008BD070008680800208F
:100990007C0A002000ED00E0B5070008AD07000864
:1009A000A50700089D070008950700088D070008A7
:1009B000F0E1000883890C2203F00F0370B55A435D
:1009C0001D4CA518A4581D4A6E689568012101FAAE
:1009D00003F325EA03059560D56825EA0305D5608C
:1009E000156825EA030313604C23154A734301FA83
:1009F00004F4D358A3431ED190F90030002B0CDB34
:100A00005A0903F01F03994002F120030D4A42F8EE
:100A10002310BFF34F8FBFF36F8F90F90030002B7F
:100A200009DB5A09012103F01F0301FA03F36032C5
:100A3000044941F8223070BD18E20008003C014032
:100A40006808002000E100E08389124A03F00F01EA
:100A50000C234B43104970B4CE5843684C21594382
:100A6000012404FA06F5545824EA050454501321CD
:100A700001FB036302EB8304002161609C1D0C33C6
:100A800002EB840402EB83036160596070BCFFF7E2
:100A900091BF00BF6808002018E2000808B502F006
:100AA00059FF002008BD000008B50A4B1B684BB178
:100AB00001F0F0F801F0DCF84FF47A7200230BF04B
:100AC00077FD08BD044B586A4FF47A73B0FBF3F01E
:100AD000F7E700BF000B0020000C0040C36810B512
:100AE00004460BB19B689847204610BD0368184721
:100AF0000B680360704770470346024A2030FFF7D7
:100B0000D1BE00BF330C000870B50546124B45F846
:100B1000043B04460E461C22002128460CF0DCFB58
:100B20001022002104F120000CF0D6FB102200213D
:100B300004F130000CF0D0FB1022002104F1400041
:100B40000CF0CAFB31462046FFF7D6FF2846314657
:100B500000F0CFFA204670BDE0E2000813B504466D
:100B6000019100F02BF90199201DFFF7B5FD02B0AE
:100B7000BDE8104000F02CB910B5084B044640F811
:100B8000203BFFF761FF04F14000FFF769FB04F130
:100B90003000FFF765FB204610BD00BFE0E2000813
:100BA00010B50446FFF7E8FF2046502100F07AFD1B
:100BB000204610BD884238B504460D460ED0FFF7DA
:100BC0004FFB1022002120460CF086FBEB681BB186
:100BD0005B68294620469847EB68E360204638BDAD
:100BE000F0B50D4685B0044600F0E8F8EE6804F173
:100BF0003007203466B129463846FFF7DBFF012273
:100C000001212046FFF7DEFD00F0E2F805B0F0BD5F
:100C10001022314668460CF05FFB69463846FFF704
:100C2000C9FF6846FFF71CFB3246E9E7C3681B684B
:100C30001847012908B502D0022907D008BDC36BA7
:100C4000002BFBD03030FFF7F1FFF7E7C36C002B30
:100C5000F4D04030F7E7000010B5044621B9102267
:100C60000CF03AFB204610BD0022034B426082602C
:100C70000160C360F6E700BFE8E200080346012216
:100C8000D3E84F0FC3E8412FC0B20029F8D1704715
:100C9000D0E85F3F5B18C0E8523F002AF8D198B215
:100CA0007047D0E85F3F5B1AC0E8523F002AF8D196
:100CB00098B27047D0E84F3FC0E8421FD8B27047A3
:100CC00000B589B000F07AF8052101A800F026FAF5
:100CD000114E124D0424039B019A1A60304600F015
:100CE000E7FF019B049A1B041360304600F0E0FF0D
:100CF000013CF0D10424039B019A1A60284600F0BD
:100D0000D7FF019B049A1B041360284600F0D0FF14
:100D1000013CF0D1DEE700BFF0490200801A060076
:100D200007B5014600220190022000F0B7FB00F059
:100D300045F8019908460CF09AFE019902460220F6
:100D400000F0ACFB03B05DF804EB00F041B800002C
:100D500000B5A3B002460B4601A884210CF0CCFEDE
:100D6000832806D9074B1A681B79CDF883208DF8A4
:100D70008730002802DD01A8FFF7D2FF23B05DF81D
:100D800004FB00BFF4E200080FB407B504A951F852
:100D9000040B0191FFF7DCFF03B05DF804EB04B036
:100DA0007047EFF31080C04300F001007047EFF38D
:100DB0000580003818BF01207047000008B500F01A
:100DC00013F8024A13680133136008BD800A00203B
:100DD000044A136823B1013B13600BB900F016B845
:100DE000704700BF800A0020EFF3108372B6054AF7
:100DF000117831B90449DB4303F001030B7001237F
:100E000013707047850A0020840A0020034B0022DB
:100E10001A70034B1B7803B162B67047850A002035
:100E2000840A002008B50B48FFF728FF28B1FFF718
:100E3000C5FFBFF34F8F20BFFDE7FFF7B8FF08B135
:100E4000FFF73EFFFFF7ADFF0028F9D001200BF0C0
:100E500031FD00BFC80A002070B51B4C8EB034EACB
:100E6000200428BF04460D4616460021282204A867
:100E70000CF032FACDE901460395FFF79FFF134AC4
:100E800013680133012B136009D101AD0FCD104C54
:100E90000FC40FCD0FC40FCD0FC42B68236001AC5E
:100EA0000FCC0C4D0FC50FCC0FC50FCC0FC5236851
:100EB0002B60094B1B6813B1A5F130009847FFF771
:100EC00087FF00200EB070BD0101FF80880A00205E
:100ED000940A0020CC0A00208C0A00200FB407B529
:100EE00001210648CDF804E0FFF7E4FE019A01462F
:100EF00010B90348FFF7B0FFFFF794FF900A0020F6
:100F00000001FF8008B504460121064876461546D3
:100F1000FFF7D0FE20B9324629462046FFF79CFF56
:100F2000FFF780FF900A0020F0B52C4E2C4F85B0C3
:100F300000243546214656F8042B38460134FFF785
:100F400023FF0D2CF6D1AB6C02936B6C01932B6CD1
:100F5000244C0093D5E90E23696B2348FFF714FF57
:100F600021682248FFF710FFE16AA26AA36AA06A1B
:100F7000266BE76B000CCDE901670090C3F30723F4
:100F80001B48D2B2FFF700FFA36A1E0603D5616BB0
:100F90001848FFF7F9FEA36A180403D5A16B164899
:100FA000FFF7F2FEEB6C190712D51448FFF7ECFEC1
:100FB0002B6DDA070FD51248FFF7E6FEEB6C5B07E7
:100FC0004CBF1048104805B0BDE8F040FFF7DCBE4C
:100FD0000E48FFF7D9FE0E48EEE700BF2C23002095
:100FE000F9E2000800ED00E007E3000856E300081E
:100FF00064E30008B3E30008C1E30008CFE300089E
:10100000DEE300080EE400081AE40008FEE300082E
:10101000EBE3000813B504461548FFF7B5FE302C86
:1010200017D0402C1AD0202C1DD11248124CFFF79B
:10103000ABFE1248FFF7A8FEFFF776FF1048FFF758
:10104000A3FE104A104900230093D26B2046FFF7FD
:1010500059FF0E480E4CFFF797FEEAE70D480E4C7D
:10106000FFF792FEE5E70D480D4CFFF78DFEE0E738
:1010700026E400084FE400083E01FF807CE40008FD
:1010800087E400082C230020A6E400085EE40008A2
:101090003F01FF8067E400084001FF8072E4000820
:1010A0003D01FF8070B50E4604461546FFF7F4FA81
:1010B000013609D020460021FFF712FB29462046C1
:1010C000BDE87040FFF708BB70BD38B50368044643
:1010D0000D465AB18268136020460121FFF700FBDC
:1010E00029462046BDE83840FFF7F6BAC2681B041F
:1010F000F1E70022FFF7D6BF37B50D46044601924F
:10110000FFF7CAFA013507D0019A0021204603B043
:10111000BDE83040FFF7D9BF03B030BD0022FFF774
:10112000EBBF000008B502F0C3FB01F095FC02F034
:10113000B1FB02F0BDFB024B01221A6008BD00BFEB
:10114000000B00201FB5431C10D105B05DF804FB57
:1011500083420AD18968039000F0E6FD03980021DC
:1011600005B05DF804EB00F05BBE0C31B1F9003066
:101170005A1CEDD100230246009302481946FFF79E
:10118000C1FE00BF30010180884207B502460AD087
:10119000431C08D0013105D00023054800931946AF
:1011A000FFF7B0FE0146084603B05DF804FB00BF40
:1011B00030010180B1F900305A1C01D11846704746
:1011C000834201D1486870470C31F3E7421C13B5E4
:1011D00004460AD0FFF7EEFF431C06D10023044863
:1011E000009322461946FFF78DFE02B010BD00BFE6
:1011F00030010180B1F900305A1C01D11846704706
:10120000834201D1886870470C31F3E7421C13B563
:1012100004460AD0FFF7EEFF431C06D10023044822
:10122000009322461946FFF76DFE02B010BD00BFC5
:101230003001018013B5074C01212046FFF728FD3E
:10124000034628B90090014622880348FFF75AFE5A
:1012500002B010BD040B00202301048013B5094C1B
:1012600001212046FFF71DFD4FF6FF73984206D17E
:1012700000232288044800931946FFF743FE02B07A
:1012800010BD00BF040B0020240104806FF01C007F
:1012900070476FF0150070470120704700207047BD
:1012A00070470000F8B5074E15460C468F18BC4233
:1012B00005D014F8011B304601F06CFAF7E7284618
:1012C000F8BD00BF8023002038B511F001048DB2B5
:1012D00005D0084801F08CF8041E18BF0124EB0665
:1012E00005D5044801F09AF808B144F010042046EE
:1012F00038BD00BF8023002010B504460BF076FFF8
:10130000204610BD10B50C462AB1044801F030FA51
:101310002070012010BD1046FCE700BF8023002094
:1013200038B51D46074B0360074B1B68044633B9AD
:10133000064801F0C3F80548294601F0A5F8204603
:1013400038BD00BFC4E40008940B002080230020B7
:10135000002070470020704708B501200BF0AAFA62
:10136000074A084913681844884289BF064B106031
:101370000C224FF0FF308CBF1A601846704700BF38
:101380009C020020007C01200C26002001207047D8
:1013900000210CF051BA7047704708B5FFF7FBFF0A
:1013A00008BD08B5FFF7F8FF08BD037803F0030395
:1013B000012B09D0037803F00302012A04D043F083
:1013C000020303700120704700207047037823F068
:1013D000030343F001030370704700003F2870B51A
:1013E00004462FDC184D55F820305A1C13D1022822
:1013F00011DCFFF7AFFF034658B92046FFF7A8FFFF
:10140000034630B9114E3378BFF35B8FDB0704D549
:101410000F4B45F82430184670BD3046FFF7C5FF26
:101420000028F5D04FF41653032202210848FFF795
:1014300077FF3046FFF7CAFF064A07490448FFF71F
:10144000A5FFE5E70023E6E79C010020080B00204C
:10145000140B002098010020A112000838B50546A1
:10146000FFF7BCFF0B4B002443F8254030B90BF0CD
:101470001BFA092303604FF0FF3038BD03685B6936
:101480009847051E04DA0BF00FFA6D420560F2E78B
:101490002046F2E79C010020FFF7E0BF13B5CDE93D
:1014A0000021FFF79BFFDDE9002140B90BF0FCF9BB
:1014B000092303604FF0FF34204602B010BD0368DB
:1014C000DB689847041EF7DA0BF0EEF9644204601B
:1014D000F0E708B5131E07DA0BF0E6F916230360F0
:1014E0004FF0FF33184608BDFCD0FFF7D7FF40EAA6
:1014F000E073F7E713B5CDE90021FFF76FFFDDE9F2
:10150000002140B90BF0D0F9092303604FF0FF34FC
:10151000204602B010BD03689B689847041EF7DAA6
:101520000BF0C2F964420460F0E7002A08B503DB5F
:10153000BDE80840FFF7DEBF0BF0B6F916230360E5
:101540004FF0FF3008BD10B5FFF748FF044628B93B
:101550000BF0AAF909230360204610BD0368DB697C
:101560009847041EF8DA0BF09FF9644204600024E7
:10157000F2E737B54023CDF80100054668468DF8FF
:1015800000300BF01DFC044630B12846FFF7DBFFAE
:1015900010B12046FFF7FCFE204603B030BDFFF738
:1015A000D2BF13B5CDE90021FFF718FFDDE9002117
:1015B00040B90BF079F9092303604FF0FF3420465E
:1015C00002B010BD03681B699847041EF7DA0BF0E0
:1015D0006BF964420460F0E7FFF7E3BF10B5FFF773
:1015E000FDFE30B90BF060F9092303604FF0FF30C6
:1015F00010BD03689B699847041E04DA0BF054F988
:1016000064420460F2E70020F2E700000A4D08B5EA
:101610002B68044698680BF097FA2B68D8680BF093
:1016200093FA0120FFF7DAFF0220FFF7D7FF0CB192
:10163000FFF746FBFEE700BFBC07002038B50D46AC
:10164000FFF7CCFE044630B90BF02EF909230360F6
:101650004FF0FF3038BD0368DB699847002814BF9E
:101660004FF400534FF400436B60236820469B6A9D
:10167000984728610020EDE7FFF7E0BF1FB5039012
:101680000BF0ACFD039A034620B9009001460348D5
:10169000FFF738FC05B05DF804FB00BF1F010180B7
:1016A000FFF7ECBF0BF0A2BD0BF0A0BD10B50446D8
:1016B0000848FEF7CDFD084A4023002152F8040BEC
:1016C000A04208BF42F8041C013BF7D10148FEF7D5
:1016D000BFFD10BD0C0B00209C01002010B50F4871
:1016E000FEF7B6FD0E4B032453F824206AB10134F3
:1016F000402CF9D10BF0D8F8182303600748FEF707
:10170000A7FD4FF0FF34204610BD4FF0FF320348D5
:1017100043F82420FEF79CFDF5E700BF0C0B0020EA
:101720009C01002010B50446FFF7D8FF0028A4BF95
:10173000014B43F8204010BD9C01002073B50646C4
:101740000191FFF7EFFF051E13DB0199FFF711FF72
:10175000044630B9084B53F82520964204D143F88B
:101760002500204602B070BD0BF09EF809230360EF
:10177000F7E70024F5E700BF9C0100200EB42DE937
:10178000F04187B00190FFF7A9FF041E13DB00238F
:101790000199039304A8FEF7ABFE04A8FEF7EEFE42
:1017A0001B4E054668B90BF07FF81323036046F81B
:1017B00024504FF0FF34204607B0BDE8F04103B09D
:1017C000704704A8FEF7C8FE074604A837B1FEF725
:1017D000CCFE0390039B46F82430ECE7FEF7B3FE03
:1017E00005460028DFD0036804A8D3F80880FEF778
:1017F0009FFE0D9B024603A92846C04705460028C8
:10180000E8D00BF051F86D42056046F82470D0E73F
:101810009C01002070B50E46154905460CF01DF9D7
:10182000044618B9FFF7DAFD204670BD1149284675
:101830000CF013F920B90120FFF7D0FD0124F3E7E4
:101840000D4928460CF009F920B90220FFF7C6FD22
:101850000224E9E72B78402B02D1D5F80140E3E7D9
:1018600026F400412846BDE87040FFF787BF00BF5F
:1018700020E5000827E5000818E50008704700008B
:10188000084B094998684FF00053C21802F16042B2
:10189000126843F8042B8B42F7D1024B4FF00052F1
:1018A0009A60704700ED00E09401002008B5FFF752
:1018B000E7FFFFF737FC02F0A1F8FFF7DFFF08BDF5
:1018C0002DE9F74F446894F83A100646002955D19F
:1018D0000168496888477168096A814205464DD0A8
:1018E000206AE168A6682562281A014038488642C5
:1018F0008C464FF0000E39D094F83BB0D4E90A5A28
:101900000027A1FB0001BBF1000F46D0CBF120085E
:1019100001FA08F820FA0BFCABF1200E21FA0EFEBA
:101920004CEA080C4CEA0E0C2D1821FA0BFEABF118
:1019300020094AEB010ACBF120080EFA0BF10CFA50
:1019400009F941EA09012CFA08F80CFA0BF02B1AF4
:1019500041EA080100936AEB01030193DDE90023EA
:10196000BB4208BFB2420CD2C4E90A23D4E90C013D
:1019700010EB0C0041EB0E01C4E90C0103B0BDE813
:10198000F08F009B1CF1010C4EF1000E9A1B019B85
:1019900063EB0703C4E90A23E8E732463B460AF053
:1019A00007FE12EB050843EB0A09B94508BFB0452D
:1019B00084468E4602D2C4E90A89D7E710F1010CA9
:1019C00041F1000EB8EB060269EB0703E2E700BF46
:1019D00040420F00824206D98A420BD9884294BF06
:1019E000002001207047884206D98A428CBF00201F
:1019F0000120704701207047002070472DE9F74F04
:101A0000D0F8048098F83A300746002B40F08180E7
:101A100098F83930002B7CD1FFF752FF7E683A6886
:101A200073680192002B66D0D6E90C01D3E900233C
:101A3000994208BF904205D3019B5B6903B0BDE8A2
:101A4000F04F1847141A63EB0105D6E90623AB42A1
:101A500008BFA242D6F8109006D3B2682E4B9A4225
:101A600019D1A14528BFA146326A019B9144F26871
:101A70001B6909EA02021046019298473B685B68BD
:101A80009847019A0146D8F82000FFF7A3FF0028E5
:101A90003FD03B68D1E796F83B30EBB1A3F1200C87
:101AA000C3F1200224FA02F204FA03F005FA03F16A
:101AB00004FA0CFC194C41EA0C0111430019164AB6
:101AC0004FF000044FF0000344EB01010AF070FDF9
:101AD000814528BF8146C7E71048A2FB04AB02FB43
:101AE00005BB1AEB00004FF000010B4A4FF000035A
:101AF0004BEB0101EAE7D8F81030D8F82000D8F80D
:101B00000C201844019B1B69104003B0BDE8F04F46
:101B1000184703B0BDE8F08F40420F003F420F006E
:101B20002DE9F04F436893F8382085B00546002A28
:101B300063D193F83A30002B5FD103681B68984754
:101B40002B68DB69984703682BB92D4800931A4628
:101B50001946FFF7D7F91F21012202FA01F4A34227
:101B60005FFA81FA02D00139F7D18A464668321FFE
:101B70001C2A05D90023234800931A461946E8E792
:101B80001C4614F1FF384FF000031F494FF00707C0
:101B900043F1FF399740C1FB078922464046494639
:101BA0000AF006FD6B682A6803934FF00008C3E94A
:101BB00000885268894683469047039B0122186239
:101BC00002FA06F66B6800210020013EC3E90A0113
:101BD000C3E90C01C3E903672846C3E906B99C6061
:101BE00083F83BA01A8783F83A80FFF769FE2846FE
:101BF00005B0BDE8F04FFFF701BF05B0BDE8F08FBD
:101C00000E0104800501048040420F0070B50446B7
:101C1000FFF7D4F82368DB689847636893F83A20A5
:101C20001AB1BDE87040FFF7D3B8012283F839201C
:101C300063685B68A3B12046FFF742FE65686E6883
:101C4000D5E90C01D6E90023994208BF904207D399
:101C5000F3686B602B68002BEAD0B0689847E7E721
:101C60006368002283F839202046FFF7C7FED8E7D3
:101C700038B50446FFF754FFFFF7A0F82046FFF7FA
:101C80001FFE6368D3E90C45FFF7A2F820462946FA
:101C900038BD70470048704730E50008024B1B68AC
:101CA0000BB1024818477047A002002030E5000839
:101CB000034B596A5A6A521A8242FBD3704700BFDB
:101CC000000C004030B591FAA1F391FAA1F1B3FAFA
:101CD00083F384685B000325B1FA81F105FA03F30D
:101CE000490024EA03038A401343836030BD30B5C2
:101CF00091FAA1F391FAA1F1B3FA83F3C4685B00FE
:101D00000325B1FA81F105FA03F3490024EA03033C
:101D10008A401343C36030BD012A02D0022A18BF93
:101D20000022FFF7E4BF00002DE9F84300F00F02A6
:101D30003A4B1FFA80F9C0F3031053F82270C1F335
:101D4000831801F007060D46FEF732FCB8F10F0FBD
:101D50000CBF0322424639460446FFF7B3FF022E6A
:101D600028D0032E58D0711E4B424B4197FAA7F250
:101D7000B2FA82F221685200032000FA02F221EA4C
:101D8000020197FAA7F2B2FA82F252009340013EA2
:101D90000B43012E236005D863682A074CBF3B43E1
:101DA000BB436360C5F3011239462046BDE8F843E2
:101DB000FFF7B2BF19F0080FC5F3832217D03B0A13
:101DC00093FAA3F1B1FA81F1406A93FAA3F389007F
:101DD0004FF00F0CB3FA83F30CFA01F19B0020EAE9
:101DE000010102FA03F30B4363620223BEE797FA91
:101DF000A7F1B1FA81F1036A89000F2000FA01F11D
:101E000023EA010197FAA7F3B3FA83F39B0002FADE
:101E100003F30B432362E8E73346A7E778E70008BC
:101E200038B500F00F021F4BC0F3031053F82250D7
:101E30000C46FEF7BDFB95FAA5F2B2FA82F35A0002
:101E400001680323934095FAA5F2B2FA82F20B409F
:101E50005200D340013B012B1AD8E31E022B4368EA
:101E600009D82B43032C43601AD101222946BDE82F
:101E70003840FFF751BF23EA0503012C4360F4D03B
:101E8000022C0BD029460022BDE83840FFF72FBFB7
:101E900004F0FD03012BE8D0052CF1D10222E5E787
:101EA000052CEEE778E7000807B5002303760191DB
:101EB0000090FEF783FFDDE9000100F083F9FEF7F3
:101EC00087FF009803B05DF804FB07B501908DED26
:101ED000000AFEF773FF9DED000A019800F024FA56
:101EE00003B05DF804EBFEF773BF037E10B5044644
:101EF0001BB9FFF79FF90123237610BD07B58DEDC0
:101F0000010A0090FEF75AFF0098FFF7EEFF9DEDE3
:101F1000010A009800F036F803B05DF804EBFEF714
:101F200057BF037E10B504461BB1FFF797F9002396
:101F3000237610BD07B50190FEF740FF019800F031
:101F40001BF80198FFF7EDFFFEF742FF019803B081
:101F50005DF804FB4B7D2BB1082807D8044B33F800
:101F6000100070470C2801D8024BF8E7002070479A
:101F7000E4E70008F6E70008B0F904004FF47071D8
:101F8000FFF7D2BEF0B52E4B07681F60B5EEC00A52
:101F9000F1EE10FA89B004463ED4F7EE007AB4EEC2
:101FA000670AF1EE10FAC8BFB0EE670AD4ED037A03
:101FB000F8EE677A67EE807A17EE900A09F080FFF4
:101FC000204B002209F01EFE0AF082FA6023227DD7
:101FD00001930023CDE90533039304930793531E24
:101FE000032BA6682061B0FBF6F6029622D86FF0AC
:101FF000030505EB820521462846FFF7ABFF3B6A48
:1020000030EA03030BD00E482A4601A901F00EF96D
:1020100050B10D48FEF762FF9FED0C0AC6E707F1CD
:102020003403AA1043F82260637D054829461BB19A
:1020300001F0A0F909B0F0BD01F07CF9FAE700BFAA
:10204000580B00200000E03FB8E700080000000047
:10205000C3689BB190ED047A07EE903AB8EE477AE8
:10206000F8EE677A87EE270AF7EE007AB4EE670A91
:10207000F1EE10FAC8BFB0EE670A70479FED010A93
:10208000704700BF000000002DE9F0412DED028BEC
:10209000474C0268226086B000230E460093054636
:1020A000FFF7D6FF116A41F211131942B0EE408AD0
:1020B00008D1116A40F24443194202BF136823F069
:1020C0000103136001A8694600F072FF2868394BCC
:1020D0000022D1B2013253F831708742F9D110B9E0
:1020E0003548FEF7FBFE03EBC1031B79002B3CD107
:1020F00000F03EFFDDF810C000900099012301FAC6
:1021000003F0AB602D4BB0FBF3F0B1FBF3F1BCF18E
:10211000000F30D14A1E771E6260E7603B464FF0E9
:1021200000084FF6FE7EB3F5803F26D2B2F5803F21
:1021300023D2B8F1000F01D06260E36000231C4895
:102140002361A36001F02CF850BBEE60B0EE480AAA
:102150002846FFF717FF2268136843F00103136056
:1021600006B0BDEC028BBDE8F08100F011FFDDF898
:1021700014C00090C1E7421ECDE7AB685B00AB60C6
:10218000BCF1000F0ED101FB03F2B7FBF3F3734573
:1021900002F1FF3209D8B2F5803F06D36260E360F6
:1021A00007489EE700FB03F2EFE74FF00108BAE7AC
:1021B000580B002010E80008CFE7000840420F004D
:1021C000B8E7000830B50D4604464E4989B02846A8
:1021D000FEF7FCFF4B4920602846FFF717F8C0F3D5
:1021E0008433494A23752368C0F3C0409342607525
:1021F0004FF000021AD10092444A516C41F00101A3
:102200005164526C02F001020092009A404A9342DB
:102210004CD1002305933D4B5A6C42F480325A64F2
:102220005B6C03F480330593059B16E0B3F1804F9C
:1022300025D038498B422ED037498B4246D037497A
:102240008B42E3D1314B04921A6C42F008021A64BB
:102250001B6C03F008030493049B2A492846FEF7ED
:1022600071FF0023C4E9033344F6206101232046B3
:10227000A580A36009B0BDE83040FFF705BF01921B
:10228000224A116C41F001011164126C02F001024A
:102290000192019ABAE702921C4A116C41F00201C4
:1022A0001164126C02F002020292029A1C4A9342DA
:1022B00017D100230693154B5A6C42F400325A642E
:1022C0005B6C03F400330693069BC6E703920F4A48
:1022D000116C41F004011164126C02F004020392CB
:1022E000039A104A9342B8D100230793074B5A6CC4
:1022F00042F480225A645B6C03F480230793079BAB
:10230000ABE700BF5CE50008000001400038024078
:10231000004001400004004000080040000C004064
:102320000044014000480140DFED047A20EE270A16
:10233000FDEEC07A17EE901AFFF7A6BE002474498E
:10234000704700F071BAA0F1B400FFF7FABF00F0D7
:102350006EBAA0F1B400FFF7FABF00000A4B10B547
:1023600003F10802026003F1280294330446C0F826
:10237000B420C0F8B830B43001F0A4F9204600F021
:1023800001FB204610BD00BF58E80008A0F1B400D2
:10239000E4E7A0F1B800E1E710B50446FFF7DEFF7F
:1023A0002046D021FFF77EF9204610BDA0F1B400F1
:1023B000F2E7A0F1B800EFE77047704738B5044680
:1023C0001D46049B00F03AFA294604F1B40001F0DE
:1023D00051F9064B03F10802226003F128029433FD
:1023E000C4F8B420C4F8B830204638BD58E8000816
:1023F0004368094A9B0182B0D3581A68120706D570
:10240000002201921A6801925A680192019A186892
:10241000C0F3401002B07047CC2300204368034A49
:102420009B01D3581868C0F3C0107047CC2300201C
:1024300003464068134A810110B41C688C5002EBBB
:1024400080109A684260DA6882601A69C2605A69CC
:1024500002611A6A82610022C284C2618284C285DA
:102460008285B3F91A20013205D108235DF8044BA7
:10247000436101F096B8B3F9183001330CBF04235F
:102480000C23F3E7CC2300208160FFF7D1BF0000CD
:10249000094B98420BD0A3F54C43984209D003F561
:1024A0005043984214BF4FF0FF3002207047002085
:1024B00070470120704700BF00100140F0B50E4684
:1024C00085B04149044630461546FEF77FFE3F4938
:1024D00007462846FEF77AFE01463846FEF754FEC8
:1024E000022E20600AD0032D08D037490220FEF7C3
:1024F0006DFEB84244D13648FEF7F0FC0127354B5B
:10250000206898424FF000033CD10193324B5A6C43
:1025100042F010025A645B6C03F010030193019BBC
:10252000FFF7B6FF284960603046FEF70BFE2846ED
:102530002649FEF707FE701C03D001213046FFF745
:102540006FFC691C03D001212846FFF769FC0023BA
:102550004FF41652C4E90223C4E9043323622683EC
:1025600065832046FFF764FF5FB31C4B1C480122C4
:102570001A6021464C2205B0BDE8F0400AF09EBE2C
:102580000027BCE7174A90420FD002F55042904214
:10259000C6D10393104B5A6C42F020025A645B6C14
:1025A00003F020030393039BBAE702930A4B1A6CD0
:1025B00042F400321A641B6C03F400330293029B52
:1025C000AEE705B0F0BD00BF30E70008E8E6000860
:1025D000F4E800080010014000380240940B00208D
:1025E0008023002000440040F7B5FFF751FF041E90
:1025F00026DB144F57F8240010B3134DA601AB5936
:102600001A68120606D5DB68190603D50F4B01219F
:102610001B689847AB591A68920608D5DB6898067C
:1026200005D50A4B57F824001B6800219847AB5981
:102630001A68110704D55A69D20744BF5B68019331
:1026400003B0F0BD9C0B0020CC230020980B002091
:102650000148FFF7C9BF00BF001401400148FFF760
:10266000C3BF00BF004400400148FFF7BDBF00BF2B
:1026700000100140002808DB0123420900F01F0080
:1026800003FA00F0014B43F82200704700E100E03C
:1026900000280DDB4309012200F01F0002FA00F0C0
:1026A0002033044A42F82300BFF34F8FBFF36F8FEC
:1026B000704700BF00E100E0034B19604168034B25
:1026C00043F82120704700BF980B00209C0B00208E
:1026D000D0E9000330B4204CA0421BD004F5806444
:1026E000A0421DD0A4F55044A04216D0002420469C
:1026F0001A4D9B01EB58CAB1DA68A1B942F0200229
:10270000DA60174B00F110029B6843F8224030BC9E
:10271000FFF7B0BF134C2520EAE7134C2620E7E76C
:10272000124C4720E4E742F08002E9E7DA6849B951
:1027300022F02002DA60DB6813F0800F09D130BC90
:10274000FFF7A6BF22F08002DA60DB6813F0200FEB
:10275000F4E730BC704700BF00100140CC230020DC
:1027600000ED00E0692600085D26000851260008FB
:1027700038B5456804462046FFF73AFE0028FAD0EF
:10278000AD01034B5B595868C0F3080038BD00BF6A
:10279000CC23002070B5466805460C462846FFF756
:1027A0003DFE0028FAD0034BB601C4F308049B5940
:1027B0005C6070BDCC230020704701F1090300EB81
:1027C0000313DA6832B100EB01111846D1F89C20EE
:1027D000126810477047416830B4034671B1D0E9C0
:1027E000032000F0010402B944B1451001EB600080
:1027F0000CB149598A58996830BC104730BC7047B1
:1028000070B50646044656F8443B0D461B6898478B
:1028100030462946FFF738FE2368C4F8B0502046FA
:102820005B68BDE8704018474430FFF7A1BF10B5A2
:1028300044300C46FFF7AEFF204610BD2DE9F04FA7
:1028400087B0002501932F4B036010262E4B436069
:102850000446C0E90355C0E905558846914685837D
:1028600032462946806020300AF036FD04F14407E4
:102870003246294604F130000AF02EFD04F1900A98
:102880002946A4F840504C2238460AF025FD04F1B0
:10289000A00B3246294650460AF01EFD3246294614
:1028A00058460AF019FD019BC4F8B030324629465B
:1028B00002A80AF011FD02A95046FEF77BF902A812
:1028C000FDF7CEFC3246294602A80AF005FD02A912
:1028D0005846FEF76FF902A8FDF7C2FC4A4641468A
:1028E0003846FFF7EBFDD4F8B0103846FFF7CCFDC3
:1028F000384606492246FFF7DFFE204607B0BDE80E
:10290000F08F00BF34E90008D7270008BB27000874
:102910002DE9FF41036815460F4604461B6805F183
:102920000906984704EB0616FEF748FAFA68F368BA
:1029300004F14408A2B10BB9FEF77CFC39463046DD
:10294000FEF738F9012229464046FFF7C1FEFEF79F
:102950003FFA236820465B68984704B0BDE8F081E1
:102960000BB1FEF77BFC1022002168460AF0B4FC94
:1029700069463046FEF71EF96846FDF771FC0022F5
:10298000E1E700001FB51A4B036004461022002146
:1029900068460AF0A1FC002269462046FFF7B8FF0E
:1029A0006846FDF75DFC1022002168460AF094FCA1
:1029B000012269462046FFF7ABFF6846FDF750FC51
:1029C00004F1A000FDF74CFC04F19000FDF748FC79
:1029D00004F13000FEF782F804F12000FEF77EF8E3
:1029E000A06908B1FDF744FC204604B010BD00BF4B
:1029F00034E9000810B50446FFF7C4FF2046B421AF
:102A0000FEF750FE204610BDDFF830D0002103E075
:102A10000B4B5B58435004310A480B4B42189A4207
:102A2000F6D30A4A02E0002342F8043B084B9A42DC
:102A3000F9D300F08BFEFDF7D1FB70470080012039
:102A400014ED000898010020380800203808002004
:102A500010260020FEE7704708B50B4B1A6842F4B9
:102A600000721A601A6842F480621A601A6842F4AE
:102A700080721A60032000F01DF80F20FEF70EF898
:102A8000FFF7E9FF002008BD003C024038B50446CE
:102A9000FEF70AF8631C1CBF054B1B78054618BFE0
:102AA000E418FEF701F8431BA342FAD338BD00BF78
:102AB000A40200200749CA6822F4E062030212045B
:102AC00003F4E063120C134343F0BF6343F4003399
:102AD000CB60704700ED00E02DE9F341044618B9E2
:102AE000012002B0BDE8F0810368DD0710D423683F
:102AF00098075BD423681A0700F19D8023685B0761
:102B000000F1BB80A269002A40F01C810020E8E7A8
:102B1000A54B9A6802F00C02042A07D09A6802F0CA
:102B20000C02082A0AD15A68510207D59E4B1B682D
:102B30009A03DCD56368002BD9D1D1E76268B2F57E
:102B4000803F11D11A6842F480321A60FDF7ACFF61
:102B5000954E054633689B03C9D4FDF7A5FF401B7E
:102B60006428F7D90320BCE78F4DB2F5A02F2B685E
:102B700007D143F480232B602B6843F480332B6010
:102B8000E4E723F480332B602B6823F480232B604D
:102B9000002ADBD1FDF788FF06462B689F03A6D5E8
:102BA000FDF782FF801B6428F7D9DBE77E4B9A682C
:102BB00012F00C0F07D09A6802F00C02082A11D10B
:102BC0005B685E020ED4784B1A68950702D5E268FE
:102BD000012A85D11A68216922F0F80242EAC1026D
:102BE0001A6087E7E268714BB2B101221A60FDF703
:102BF0005BFF6D4D06462B68980707D52B68226949
:102C000023F0F80343EAC2032B6073E7FDF74CFFA0
:102C1000801B0228EFD9A5E71A60FDF745FF624E39
:102C20000546336899077FF565AFFDF73DFF401B0B
:102C30000228F6D996E762695D4B7AB101221A60E3
:102C4000FDF732FF584E0546736F9F073FF556AFAD
:102C5000FDF72AFF401B0228F6D983E71A60FDF72B
:102C600023FF514E0546736F98077FF547AFFDF779
:102C70001BFF401B0228F6D974E74B4B1A6C12F06D
:102C8000805228D101921A6C42F080521A641B6C57
:102C900003F080530193019B0127464D2B68D90512
:102CA0001BD5A368404D012B27D12B6F43F00103A7
:102CB0002B67FDF7F9FE3C4E054641F28838336F2D
:102CC0009B0739D5002F3FF41DAF374A136C23F013
:102CD0008053136416E70027DFE72B6843F4807303
:102CE0002B60FDF7E1FE06462B68DA05D9D4FDF727
:102CF000DBFE801B0228F7D934E7052B04D12B6FAC
:102D000043F004032B67D0E72A6F22F001022A6701
:102D10002A6F22F004022A67002BCAD1FDF7C4FEF5
:102D200041F2883806462B6F9807CBD5FDF7BCFEDD
:102D3000801B4045F7D915E7FDF7B6FE401B40451F
:102D4000BDD90FE7184DAB6803F00C03082B3FF417
:102D5000C7AE194E0023022A336035D1FDF7A4FE19
:102D600007462B68990129D4D4E907321343626AD4
:102D700043EA8213E26A43EA0263A26A5208013A12
:102D800043EA02436B6001233360FDF78DFE064D7D
:102D900004462B689A013FF5B9AEFDF785FE001B8E
:102DA0000228F6D9DEE600BF0038024000004742A4
:102DB000800E47420070004060004742FDF774FEFD
:102DC000C01B0228CDD9CDE6FDF76EFE04462B6868
:102DD0009B017FF59BAEFDF767FE001B0228F6D92D
:102DE000C0E600BF134908B58B6803F00C03042B41
:102DF0001CD0082B1CD14A684B68496813F4800327
:102E000014BF0D480D48C1F3881118BF002302F00C
:102E10003F02A1FB000109F0CBFB064B5B68C3F34B
:102E2000014301335B00B0FBF3F008BD0248FCE74F
:102E30000248FAE70038024000127A000024F40049
:102E40002DE9F0410D46044610B90120BDE8F0819E
:102E5000434B1A6802F00F028A4227D32268970771
:102E60002CD4D00740D43E4B1A6802F00F02AA427D
:102E700065D8226851076BD4130707D5394A2169F1
:102E8000936823F4604343EAC1039360FFF7AAFF0A
:102E9000344B354A9B68C3F30313D35CD840334BA0
:102EA00018600F20FDF7FAFD0020CFE7CAB21A70B4
:102EB0001B6803F00F038B42C7D1CFE7294B12F0F9
:102EC000040F1EBF996841F4E0519960160742BF94
:102ED000996841F4604199602249A0688B6823F0A9
:102EE000F00303438B60BCE762681E4B012A1CD1D0
:102EF0001B6813F4003FA8D01A4EB36823F00303F5
:102F00001343B360FDF7D0FD41F288380746B3683C
:102F1000626803F00C03B3EB820FA4D0FDF7C4FD8D
:102F2000C01B4045F3D9032090E7911E01291B687F
:102F300002D813F0007FDEE713F0020FDBE7EAB2FE
:102F40001A701B6803F00F03AB427FF47EAF90E76B
:102F50000449E0688B6823F4E05303438B608BE7FC
:102F6000003C02400038024044EA0008A802002069
:102F7000044B054A9B68C3F38223D35C034A106861
:102F8000D84070470038024054EA0008A8020020E8
:102F9000044B054A9B68C3F34233D35C034A106871
:102FA000D84070470038024054EA0008A8020020C8
:102FB0000F2303600B4B9A6802F0030242609A6889
:102FC00002F0F00282609A6802F4E052C2609B68EC
:102FD000DB0803F4E0530361034B1B6803F00F03AA
:102FE0000B60704700380240003C0240036A23F047
:102FF00001030362036A70B5446882690D6822F0B8
:1030000073022A438D6823F002032B430A4DA84222
:103010000BD1CD6823F008032B43D1E9055624F4E6
:103020004074354323F004032C43446082614A68B2
:103030004263036270BD00BF00000140036A23F4D5
:1030400080730362036A70B54468C2690D6822F038
:1030500073022A438D6823F4007343EA05230B4D62
:10306000A8420DD1CD6823F4006343EA0523D1E9DA
:10307000055624F44054354323F4806344EA051490
:103080004460C2614A68C263036270BD00000140CF
:10309000036A23F480530362036A30B54468C2694B
:1030A0000D6822F4E64242EA05228D6823F40053BB
:1030B00043EA0533064DA84202BF4D6924F480441B
:1030C00044EA85144460C2614A680264036230BD08
:1030D0000000014070477047224A036890420ED0BA
:1030E000B0F1804F0BD0A2F57C42904207D002F5A0
:1030F0008062904203D002F58062904215D14A6806
:1031000023F070031343174A904219D0B0F1804F57
:1031100016D0A2F57C42904212D002F58062904215
:103120000ED002F5806290420AD00F4A904207D03A
:1031300002F58062904203D002F58062904203D192
:10314000CA6823F44073134303608B68C3620B683F
:103150008362044B984204BF0B69036301234361FC
:10316000704700BF000001400040014010B5044618
:10317000A0B190F8393003F0FF021BB980F8382075
:10318000FFF7A8FF0223206884F83930211DFFF7DC
:10319000A3FF012384F83930002010BD0120FCE793
:1031A00010B50446A0B190F8393003F0FF021BB906
:1031B00080F83820FFF78FFF0223206884F8393029
:1031C000211DFFF789FF012384F83930002010BD4D
:1031D0000120FCE7036A23F010030362036A70B561
:1031E000446882690D6822F4E64242EA05228D684D
:1031F00023F0200343EA05130B4DA8420DD1CD68FF
:1032000023F0800343EA0513D1E9055624F4406412
:10321000354323F0400344EA8504446082614A68F0
:103220008263036270BD00BF0000014038B590F8B2
:103230003830012B04464FF0020010D00123082A39
:1032400084F8383084F839003FD009D8DAB1042A3C
:103250002AD00123002084F8393084F8380038BDA2
:103260000C2AF6D12068FFF713FF23680969DA6991
:1032700042F40062DA61DA6922F48062DA61DA69C2
:1032800042EA012230E02068FFF7B0FE23680969B6
:103290009A6942F008029A619A6922F004029A61DE
:1032A0009A690A439A61D4E72068FFF793FF23687D
:1032B00009699A6942F400629A619A6922F480620B
:1032C0009A619A6942EA0122ECE72068FFF7B6FEAC
:1032D00023680969DA6942F00802DA61DA6922F0E2
:1032E0000402DA61DA690A43DA61B2E7036A10B507
:1032F00001248C4023EA04030362036A02FA01F109
:103300000B43036210BD000010B5044601220068A3
:10331000FFF7ECFF2368064A934202BF5A6C42F45F
:1033200000425A641A6842F001021A60002010BD7F
:1033300000000140FFF7E8BF036A10B504248C4089
:1033400023EA04030362036A02FA01F10B430362F6
:1033500010BD10B5044604220068FFF7EDFF236896
:103360005A6C42F400425A641A6842F001021A6030
:10337000002010BDFFF7EDBF2DE9F8430368C168D9
:103380001A69044622F440520A431A612569A26868
:10339000D968C0692A43656921F416412A4321F09E
:1033A0000C0102430A43DA605A69A16922F44072AF
:1033B0000A43B0F5004F5A61774A79D1934203D05E
:1033C00002F58062934243D1FFF7E2FD636819255D
:1033D0004FF0640868435B00B0FBF3F3B3FBF8F312
:1033E0001F01FFF7D5FD636868435B00B0FBF3F690
:1033F000FFF7CEFD636868435B00B0FBF3F3B3FBFC
:10340000F8F308FB1363DB003233B3FBF8F35B0024
:1034100003F4F876FFF7BCFD626868435200B0FB26
:10342000F2F9FFF7B5FD6368226868435B00B0FB03
:10343000F3F3B3FBF8F308FB1393DB003233B3FB76
:10344000F8F303F007033B4433449360BDE8F8838B
:10345000FFF78EFD636819254FF0640868435B0031
:10346000B0FBF3F3B3FBF8F31F01FFF781FD6368D3
:1034700068435B00B0FBF3F6FFF77AFD63686843CF
:103480005B00B0FBF3F3B3FBF8F308FB1363DB0063
:103490003233B3FBF8F35B0003F4F876FFF768FD13
:1034A000626868435200B0FBF2F9FFF761FDBAE7CA
:1034B000934202D0394A93423FD1FFF769FD6368D6
:1034C00019254FF0640868439B00B0FBF3F3B3FB8E
:1034D000F8F31E01FFF75CFD636868439B00B0FBD7
:1034E000F3F7FFF755FD636868439B00B0FBF3F308
:1034F000B3FBF8F308FB13731B013233B3FBF8F390
:1035000003F0F007FFF744FD626868439200B0FBE8
:10351000F2F9FFF73DFD6368226868439B00B0FB4A
:10352000F3F3B3FBF8F308FB13931B013233B3FB44
:10353000F8F303F00F033B4386E7FFF719FD6368D9
:1035400019254FF0640868439B00B0FBF3F3B3FB0D
:10355000F8F31E01FFF70CFD636868439B00B0FBA6
:10356000F3F7FFF705FD636868439B00B0FBF3F3D7
:10357000B3FBF8F308FB13731B013233B3FBF8F30F
:1035800003F0F007FFF7F4FC626868439200B0FBB9
:10359000F2F9FFF7EDFCBEE7001001400014014016
:1035A000704710B5044640B390F8393003F0FF027D
:1035B0001BB980F83820FFF7F3FF2268242384F832
:1035C0003930D36823F40053D3602046FFF7D4FE8C
:1035D00023681A6922F490421A615A6922F02A0279
:1035E0005A61DA6842F40052DA6000202023E06376
:1035F00084F8393084F83A3010BD0120FCE7704778
:10360000704700207047F8B50368DB6D0D4604462F
:103610008F1898472E46BE42236806D05B6D16F879
:10362000011B204698470130F5D1236820461B6EC8
:103630009847701BF8BDF8B50368DB6D0D4604466E
:103640008F1898472E46BE42236807D09B6D2046B0
:103650009847431C02D006F8010BF4E72368204684
:103660001B6E9847701BF8BD002070470020704704
:10367000704700000F4B13B50022044640F8043B8E
:10368000FCF768FE0C4B23606C33636000236361BE
:103690000A492046FEF752F80346606128B90090B7
:1036A000024601460648FDF72DFCFDF771FE204657
:1036B00002B010BD50E10008BCE9000844E9000870
:1036C000190101800A4B03F10802743310B5044656
:1036D00002604360406909F06DF9064B23602046A3
:1036E0005C3340F8043FFCF753FE204610BD00BF9A
:1036F000B4E9000850E9000838B503680446DB6DFA
:103700000D46984701226069002109F0A3FB616919
:10371000284609F095FB236805461B6E204698470E
:10372000284638BD7FB502210F23CDE901314FF482
:103730008052002301A8CDE903320593FFF780FBF7
:10374000B0FA80F0400907B05DF804FB0F49D1F8EA
:10375000883043F47003C1F888300D4B1A6800209C
:1037600042F001021A6098601A6822F0847222F412
:1037700080321A60074A5A601A6822F480221A605E
:10378000D8604FF000638B60704700BF00ED00E031
:10379000003802401030002410B58EB01D4B0024BC
:1037A00000941A6C42F080521A641B6C1A4A03F09F
:1037B00080530093009B0194136823F4404343F427
:1037C00000431360136803F440430193A042019B3C
:1037D0004FF0010302930CBF4FF480334FF4A0234A
:1037E000039302224FF48003CDE9082308214FF40C
:1037F000A8730420CDE90A130723CDE90C0302A81E
:10380000FFF76AF918B9FFF78DFF0EB010BD20461B
:10381000FBE700BF003802400070004010B58EB0DA
:1038200000241A4B00941A6C42F080521A641B6CEC
:10383000174A03F080530093009B0194136823F40C
:10384000404343F4004313601368039403F440437C
:103850000193019B032302930123059310230693F5
:103860000A934FF4A8710423CDE90B130222072316
:1038700002A8CDE908240D93FFF72EF918B9FFF738
:1038800051FF0EB010BD2046FBE700BF00380240DC
:103890000070004008B50120FFF77EFF28B9FFF750
:1038A000BDFF10B90148FDF719FB08BD30EA00085B
:1038B000174A1849936803F00C03042B10B50DD078
:1038C000082B0DD0144B0B60114B144A9B68C3F3AB
:1038D0000313D25C0B68D3400B6010BD104BF2E7B2
:1038E0005468506852686302C2F388124CBF0C4B94
:1038F000094B00F03F00B3FBF0F35343044A526816
:10390000C2F3014201325200B3FBF2F3DBE700BF26
:1039100000380240A80200200024F40044EA000815
:1039200000127A00074B084A13601A69910707D5FD
:10393000DA68920704D56FF002021A61FEF7AEB999
:10394000704700BF000C00409024002000487047E2
:103950005CEA000830B589B001A903A8FFF728FB8D
:10396000FFF706FB002302931E4B01901A6C1E4CBE
:1039700042F008021A641A6C02F008020292029ADB
:103980001A6A42F008021A621A6A22F008021A62DF
:10399000069AA3F50B3323604FF0FF33E360134B1C
:1039A000F2B9B0FBF3F00138002560600E482561E4
:1039B000A5606561FFF7DAFB0D4B0E4A9B68C3F803
:1039C00008210D4B4FF480225A6007482946FFF723
:1039D0009BFC2268D36823F00203D36009B030BD9A
:1039E0004000DEE7003802409024002040420F00F3
:1039F00000ED00E02539000800E100E0044802681D
:103A0000D36823F00203D3600021FFF77DBC00BF21
:103A100090240020014B586A704700BF000C004002
:103A2000054B1B686FF0020258631A61DA6842F0B6
:103A30000202DA60704700BF90240020064B1B682A
:103A40006FF002021A615A6942F002025A61DA68A2
:103A500042F00202DA60704790240020034B1A689B
:103A6000D36823F00203D360704700BF9024002086
:103A7000024B1B686FF002021A617047902400200D
:103A800082B001900091009B002B05D0019B9B68A8
:103A9000019A12681A6005E0019B1A68019BDB68B5
:103AA00012041A6000BF02B0704700B583B00190E5
:103AB0000B46ADF80230019B1A4600231360536099
:103AC0009360D360136153619361019BBDF9022040
:103AD00011461846FDF70DFB019B184603B05DF833
:103AE00004FB00B583B001900B46ADF80230019B9A
:103AF0001A460023136053609360D36013615361CF
:103B00009361019BBDF9022011461846FDF706FBA3
:103B1000019B184603B05DF804FB00B583B001902B
:103B20000091019B00991846FFF7AAFF00BF03B060
:103B30005DF804FB10B584B001900B468DF803309E
:103B4000002303935849019A13465B0013449B00DA
:103B50000B4408331B78002B5BD19DF80330002BFE
:103B600025D11C20FDF78AFD03461C464E49019ACB
:103B700013465B0013449B000B44B3F90030194615
:103B80002046FFF792FF4849019A13465B00134411
:103B90009B000B4404331C604349019A13465B00AD
:103BA00013449B000B44083301221A7028E09DF84F
:103BB0000330012B24D11C20FDF760FD03461C4679
:103BC0003949019A13465B0013449B000B44B3F937
:103BD000003019462046FFF784FF3349019A134607
:103BE0005B0013449B000B4404331C602E49019A74
:103BF00013465B0013449B000B44083302221A70E7
:103C0000019A13465B0013449B00274A1344039315
:103C100045E02549019A13465B0013449B000B4481
:103C200008331B78012B0CD19DF80330002B08D1F1
:103C3000019A13465B0013449B001B4A13440393F1
:103C40002DE01949019A13465B0013449B000B4475
:103C500008331B78022B0CD19DF80330012B08D1BF
:103C6000019A13465B0013449B000F4A13440393CD
:103C700015E00D49019A13465B0013449B000B4469
:103C800008331B780A2B08D1019A13465B001344B2
:103C90009B00054A1344039301E000230393039B15
:103CA000184604B010BD00BFA004002000B585B0C8
:103CB00001900B468DF80330019B0393019B002B71
:103CC00007D0039B5B689DF8032011461846FFF759
:103CD00024FF00BF05B05DF804FB00B585B001907E
:103CE000019B0393039B1B7A022B0BD1039B5B6805
:103CF000002B03D01C211846FDF7D4FC039B0022A7
:103D00001A720EE0039B1B7A012B0AD1039B5B689E
:103D1000002B03D01C211846FDF7C4FC039B002296
:103D20001A7200BF05B05DF804FB00B583B00190C6
:103D30000B46ADF80230019BBDF902201146184632
:103D4000FEF7B2F8019B184603B05DF804FB00B51E
:103D500083B00190019B1846FEF70EF9019B1846AF
:103D6000FEF7E8F8019B184603B05DF804FB00007D
:103D700010B588B005908DED020B8DED001B464906
:103D8000059A13465B0013449B000B4408331B78D1
:103D9000002B67D11C20FDF771FC03461C463E49F1
:103DA000059A13465B0013449B000B44B3F90030A3
:103DB00019462046FFF7B9FF3749059A13465B00BD
:103DC00013449B000B4404331C603349059A13468B
:103DD0005B0013449B000B4404331B681C46DDE965
:103DE00002234FF000002D4908F0ECF902460B4683
:103DF0001046194608F08CFB034600EE103A2046A8
:103E0000FEF763F82449059A13465B0013449B00B0
:103E10000B4404331B681C464FF00002204BDDE9C5
:103E2000000108F0CFF902460B461046194608F08B
:103E30006FFB034600EE103A2046FEF75FF8164986
:103E4000059A13465B0013449B000B44083304227D
:103E50001A70059A13465B0013449B000E4A1344E4
:103E6000079315E00C49059A13465B0013449B0029
:103E70000B4408331B78042B08D1059A13465B00CA
:103E800013449B00044A1344079301E00023079363
:103E9000079B184608B010BDA00400200000F03FAA
:103EA0000000594082B0019000BF02B0704700008E
:103EB00010B586B003908DED000B039B0593059B19
:103EC000002B19D0059B1B7A042B15D1059B5B6831
:103ED0001C464FF000020A4BDDE9000108F072F9C0
:103EE00002460B461046194608F012FB034600EE48
:103EF000103A2046FEF702F800BF06B010BD00BF22
:103F00000000594010B584B00190019B0393039BBE
:103F1000002B14D0039B1B7A042B10D1039B5C68ED
:103F2000002C06D02046FFF712FF1C212046FDF78B
:103F3000B9FB039B00221A72039B00225A6000BF48
:103F400004B010BD82B0019000BF02B0704782B0D3
:103F500001900091009B184602B07047044B5B6AC9
:103F60009AB2044B1A80044B01221A8000BF70479A
:103F700000000140A80B0020AA0B002000B585B06E
:103F8000314B1B6B304A43F0010313632F4B1B680B
:103F90002E4A43F4202313602C4B5B682B4A43F4D6
:103FA00040735360294B9B68284A43F47023936005
:103FB000264BDB68254A43F4A023D360234B234AD6
:103FC0001B6A1362214B5B6A204A43F01103536260
:103FD0001D4B5B6C1C4A43F0010353641C4B0322D2
:103FE0009A601B4B40F201129A61194B0022DA6170
:103FF000174B11221A62164B00229A62144B4FF093
:10400000FF32DA62124B00225A62114B01221A600F
:104010006B4610491846FCF71FFE6B4619460E48C2
:10402000FCF7DEFD6B461846FCF71AF901210A4839
:10403000FCF794FD094B00221A80094B00221A80DC
:1040400000BF05B05DF804FB0038024000000240EC
:10405000000001405D3F0008AC0B0020A80B0020D1
:10406000AA0B00200A4B1B889BB2012B0CBF01231B
:104070000023DBB2002B05D0064B00225A62044B12
:1040800000221A80034B5B6A9BB21846704700BF40
:10409000AC0200200000014082B00190054B1B885B
:1040A0009AB2019B1A80044B1B889BB2184602B03F
:1040B000704700BFA80B0020AA0B002000B585B0F8
:1040C0000A4B00221A606B4600211846FCF7C4FD1B
:1040D0006B4619460648FCF783FD6B461846FCF70D
:1040E000BFF800BF05B05DF804FB00BF0000014051
:1040F000AC0B002000B583B001900091019B012B17
:104100000DD1009B4FF6FF72934208D11321064850
:10411000FCF7FAFC054A06490348FDF737F900BFEA
:1041200003B05DF804FB00BFAC0B00209801002039
:10413000790B000808B54FF6FF710120FFF7DAFF91
:1041400008BD84B00190009100238DF80F309DF9D7
:104150000F30184604B0704700B585B0019000914B
:1041600000238DF80B30019B002B02D14FF0FF3361
:1041700058E0009B002B02D14FF0FF3352E02B4B55
:10418000D3E900014FF000024FF0404308F058F926
:104190000346002B06D0009BD3E900232349C1E945
:1041A000002305E0214BD3E900230099C1E9002356
:1041B0001E4BD3E90023019B5B681B681C4A1360FC
:1041C000019B5B685B681B4A1360019B5B689B6893
:1041D000194A1360019B5B68DB68184A1360184B2F
:1041E00000221A6001F016FE0023039300230393BC
:1041F00007E0144A039B144942F82310039B013340
:104200000393039B012BF4D901F080FA03468DF848
:104210000B309DF90B30002B02D10C4B01221A7090
:104220009DF90B30184605B05DF804FB58040020DA
:10423000900C0020940C0020980C00209C0C002076
:10424000A00C0020FC0B0020715E00088F0C0020E9
:1042500000B587B0019000238DF817300023049338
:1042600000238DF80F302E4B1B78DBB2002B0CBFD8
:1042700001230023DBB28DF80E302A4B02221A7084
:10428000019B002B0BD1264B1B78DBB2002B06D1F8
:10429000254B1B78DBB2002B01D1012300E000236A
:1042A0008DF80F3017E00A20FEF7F0FB049B03F5B2
:1042B0001C5310330493019BB3F1FF3F05D0049AC4
:1042C000019B9A4201D9012300E000238DF80F30B1
:1042D000002001F059FA124B1B78DBB2002B08D1F9
:1042E000114B1B78DBB2002B03D19DF80F30002B54
:1042F000D9D00C4B03221A709DF80F30002B02D03E
:104300009C238DF817309DF80E30002B01D001F062
:10431000A9FE9DF91730184607B05DF804FB00BFF1
:104320008D0C00208F0C00208E0C002000B587B073
:1043300003468DED000BADF80E3000238DF81730DD
:1043400001238DF816304FF000024FF00003DDE935
:10435000000108F07FF80346002B02D04FF0FF3336
:1043600052E0BDF80E30FF2B02D94FF0FF334BE087
:10437000274B1B78DBB2032B04D0254B1B78DBB219
:10438000012B02D1224B04221A70BDF80E30012BF2
:104390001BD8BDF80E301F4A52F82330002B14D022
:1043A00002F0D2F903468DF815309DF81530022B36
:1043B0000BD1BDF80E30174A52F82330BDF80E204D
:1043C0001046984703468DF81630BDF80E30ADF80C
:1043D0001230BDF80E3018469DED000B01F0F8F8D4
:1043E0009DF81630002B08D0BDF81230184602F0A8
:1043F00085F903468DF8173004E0BDF812301846F1
:1044000002F0CDF99DF91730184607B05DF804FBAE
:104410008F0C0020FC0B002000B583B000238DF82A
:104420000730002001F0B0F903468DF807309DF900
:104430000730184603B05DF804FB000000B583B0F8
:1044400000238DF807300C4B06221A7001F038FA61
:1044500003468DF8073008220021084808F03CFF89
:1044600001F08AFD044B00221A709DF907301846AE
:1044700003B05DF804FB00BF8F0C0020FC0B002094
:10448000024B1B78DBB21846704700BF8E0C002031
:10449000024B1B78DBB21846704700BFA40C00200B
:1044A0002DE9F04F93B09C4BD3E91423CDE90E23B3
:1044B000994BD3E91223CDE91023974BD3E9162367
:1044C000CDE90A2300230D9341E00D9B0333934A6A
:1044D0001433DB001344D3E90001DDE90E2307F0B8
:1044E00047FD02460B4692469B468C4A0D9B143371
:1044F000DB001344D3E90001DDE9102307F038FDA8
:1045000002460B465046594607F07CFB02460B46D6
:1045100092469B460D9B0633804A1433DB001344BE
:10452000D3E90001DDE90A2307F022FD02460B462C
:104530005046594607F066FB02460B4678480D99EF
:10454000C9000144C1E900230D9B01330D930D9B6C
:10455000022BBADD704BD3E90401704BD3E9182369
:1045600007F06EFF0346002B05D16C4BD3E91823EF
:104570006949C1E90423FFF775FD0346ADF826300C
:104580000DF106031846FFF787FD634BD3E91823A7
:104590006349C1E91223BDF826305F4AB2F8802092
:1045A0009B1A0D930D9807F079FC02460B46904636
:1045B00023F00049594BD3E9180155A3D3E900234F
:1045C00007F0D6FC02460B4643EC172BB0EE470A29
:1045D000F0EE670A07F00CF953EC102B01218A4624
:1045E0004046494607F040FF0346002B01D1002317
:1045F0009A465FFA8AF383F00103DBB2002B11D0F5
:10460000454BB3F88030BDF826209A4205D20D9B69
:1046100003F57F43FF330D9304E00D9BA3F57F4328
:10462000FF3B0D933E4BD3E912890D9807F036FC02
:1046300002460B464046494607F0E4FA02460B465E
:10464000CDE90E230E9B10930F9B23F00043119393
:104650009DED0E0B00F05CFF0346002B05D0314BA7
:10466000D3E90023CDE90E2325E04FF000024FF0FF
:104670000003DDE90E0107F0EDFE0346002B05D037
:104680004FF00002284BCDE90E2314E04FF000025A
:104690004FF00003DDE90E0107F0FAFE0346002BA0
:1046A00003D04FF00002214B03E04FF000024FF027
:1046B0000003CDE90E239DED100B00F029FF03460A
:1046C000002B05D0174BD3E90023CDE9102337E0A9
:1046D0009DED100B00F0F8FE0346002B05D0114BAA
:1046E000D3E90023CDE910232AE04FF000024FF078
:1046F0000003DDE9100107F0A3FE0346002B17D0ED
:104700004FF000024FF00003CDE9102318E000BF86
:10471000000000000068C040D8240020B002002043
:1047200068250020E02500200000F0BF0000F03FD9
:104730009FEDA11B9DED100B07F0DAF88DED100B2E
:10474000DDE91023DDE90E0107F012FC02460B46FD
:104750009F49C1E912239E4BD3E9120198A3D3E9E3
:10476000002307F005FC02460B461046194696A3A7
:10477000D3E9002307F026FD02460B469449C1E920
:104780001023944BD3E94A239149C1E90623904B66
:10479000D3E90601904BD3E91C2307F031FA024616
:1047A0000B46CDE90E238C4BD3E91A010123984621
:1047B0004FF00002894B07F06BFE0346002B01D13E
:1047C000002398465FFA88F383F00103DBB2002BE5
:1047D00016D1012398464FF000024FF00003DDE9A7
:1047E0000E0107F055FE0346002B01D10023984629
:1047F0005FFA88F383F00103DBB2002B00F08180C5
:10480000754BD3E91A01012398464FF00002744B0F
:1048100007F020FE0346002B01D1002398465FFAE3
:1048200088F383F00103DBB2002B15D101239846F6
:104830004FF000024FF00003DDE90E0107F00AFE21
:104840000346002B01D1002398465FFA88F383F0DA
:104850000103DBB2002B54D05F4BD3E91E01DDE92D
:104860000E2307F0CFF902460B465B49C1E91E2330
:10487000584BD3E91223164683F00047544BD3E933
:1048800000233046394607F073FB02460B461446B8
:104890001D46504BD3E914014D4BD3E9022307F0D9
:1048A00067FB02460B462046294607F0A9F9024657
:1048B0000B4614461D46474BD3E91601444BD3E93A
:1048C000042307F055FB02460B462046294607F015
:1048D00097F902460B4614461D463E4BD3E91A0192
:1048E0003D4BD3E91E2307F043FB02460B4620460F
:1048F000294607F087F902460B463549C1E91423DA
:1049000047E0344BD3E91223144683F00045304B83
:10491000D3E900232046294607F02AFB02460B462E
:1049200014461D462B4BD3E91401294BD3E902232E
:1049300007F01EFB02460B462046294607F060F9A9
:1049400002460B4614461D46224BD3E91601204B66
:10495000D3E9042307F00CFB02460B462046294608
:1049600007F04EF902460B4614461D46194BD3E993
:104970001A01194BD3E91E2307F0FAFA02460B4637
:104980002046294607F03EF902460B461049C1E988
:104990001423144BD3E908010E4BD3E9522307F03B
:1049A00059FD0346002B1FD00A4BD3E95423084975
:1049B000C1E908231EE000BF0000000040ECF54004
:1049C000182D4454FB21194048E17A14AE0FAC4035
:1049D00068250020B0020020D824002000002840D4
:1049E000000028C0080C0020944BD3E956239449BA
:1049F000C1E90823924BD3E90801914BD3E9142371
:104A000007F000F902460B468D49C1E90A238C4B99
:104A1000D3E90A01894BD3E9582307F039FD03464E
:104A2000002B06D0854BD3E958238549C1E90C23D7
:104A300017E0834BD3E90A01804BD3E95A2307F0EF
:104A400009FD0346002B06D07C4BD3E95A237C4951
:104A5000C1E90C2305E07A4BD3E90A237849C1E97F
:104A60000C23764BD3E95C01754BD3E90C2307F09B
:104A70007FFA02460B467249C1E90E23704BD3E917
:104A80000E016E4BD3E95E2307F002FD0346002BB7
:104A900005D06A4BD3E95E23CDE90E2315E0684BC0
:104AA000D3E90E01654BD3E9602307F0D3FC03463D
:104AB000002B05D0614BD3E96023CDE90E2304E040
:104AC0005F4BD3E90E23CDE90E230E9B10930F9B72
:104AD00023F0004311935A4B93ED0E7BB0EE470A3F
:104AE000F0EE670A00F014FD0346002B05D0554B8D
:104AF000D3E90023CDE90E2327E0514BD3E90E0182
:104B00004FF000024FF0000307F0A4FC0346002B17
:104B100005D04FF000024C4BCDE90E2315E0484B79
:104B2000D3E90E014FF000024FF0000307F0B0FC94
:104B30000346002B03D04FF00002444B03E04FF03C
:104B400000024FF00003CDE90E233C4BD3E9620194
:104B5000DDE90E2307F056F802460B4610461946CB
:104B6000364BD3E9642307F02DFB02460B46CDE913
:104B70000E23374B5C6BDDE90E23DDE9100107F0F6
:104B8000F7F902460B4643EC172BB0EE470AF0EE5E
:104B9000670A2046FFF78CF92D4B5C6C4FF0000242
:104BA0004FF00003DDE90E0107F04AFC0346002B3D
:104BB00003D04FF00000254903E04FF000004FF014
:104BC0000001DDE9102307F0D3F902460B4643EC60
:104BD000172BB0EE470AF0EE670A2046FFF768F998
:104BE000174ABDF82630A2F85830194B5C6A134BAF
:104BF000D3E9660101231D464FF000024FF0000388
:104C000007F01EFC0346002B01D000231D46EBB22B
:104C100019462046FFF74AF80D4BD3E91423CDE996
:104C20000E230B4BD3E91223CDE91023084BD3E914
:104C30001623CDE90A2300230D939EE0B002002045
:104C400068250020E02500200000F0BF0000F03FB4
:104C5000D82400200D9B0333684ADB001344D3E9BA
:104C600000010D9B0333664ADB001344D3E90023A4
:104C700006F0C6FF02460B4610461946DDE90E2334
:104C800007F076F902460B4614461D465B4A0D9B1B
:104C9000DB001344D3E90001594A0D9BDB001344A8
:104CA000D3E9002306F0ACFF02460B461046194636
:104CB000DDE9102307F05CF902460B462046294641
:104CC00006F0A0FF02460B4614461D460D9B063318
:104CD0004A4ADB001344D3E900010D9B0633484ADE
:104CE000DB001344D3E9002306F08AFF02460B469B
:104CF00010461946DDE90A2307F03AF902460B4649
:104D00002046294606F07EFF02460B4614461D4605
:104D10003A4A0D9B0E33DB001344D3E90001394BB3
:104D2000D3E90C2307F024F902460B462046294616
:104D300006F068FF02460B4614461D460D9B0333E2
:104D40002E4A0E33DB001344D3E900012D4BD3E987
:104D5000102307F00DF902460B462046294606F0BF
:104D600051FF02460B460D99C90012A80144403973
:104D7000C1E900230D9B01330D930D9B022B7FF79F
:104D800069AFDDE902232049C1E91223DDE90423EB
:104D90001D49C1E91423DDE906231B49C1E9162396
:104DA000184BD3E912231849C1E91823164ABDF854
:104DB0002630A2F88030134BD3E914231249C1E9FD
:104DC0001A23104BD3E900230F49C1E91C230F4BD1
:104DD0009A6A01329A629B6A184607F04FF80B4BA9
:104DE000D3E90C23094C07F0C3F802460B46C4E98B
:104DF000082300BF13B0BDE8F08F00BFB002002051
:104E000070EA000868250020D8240020080C002043
:104E100000B585B0082000F013FB79494FF000027F
:104E2000784BC1E90E2376496FA3D3E90023C1E98A
:104E30000C23734B744A9A60714B744ADA60704B5E
:104E4000734A1A616E4B734A5A616D4B724A5A60CB
:104E5000714B724A1A60714B714A1A606F4B704AFB
:104E60005A606E4B6E4A9A606C4B6D4ADA606B4BBF
:104E70006B4A1A61694B6A4A5A61684B684A9A617F
:104E8000664B674ADA61654B654A1A625C4A5C4B5D
:104E90005B6818329A605A4A594B5B6808325A600C
:104EA000574A574B5B682032DA605E4BD3E94A239E
:104EB0005D49C1E906235B4BD3E946235B49C1E960
:104EC0001223584BD3E946235849C1E91423554BC3
:104ED000D3E946235549C1E91623524BD3E9482368
:104EE0005249C1E918234F4BB3F8A0214F4BA3F807
:104EF00080204C4BD3E94C234C49C1E91A23494B40
:104F0000D3E94E234949C1E91C23464BD3E9502339
:104F10004649C1E91E23454B00221A70414BD3E993
:104F200018234249C1E90423404B01225A60FFF78C
:104F300025F83E4B01221A723C4B002283F82820B0
:104F40003B4B0393394B0122DA62052302939FED19
:104F5000281B9FED290B0298FEF70AFF0246039BD0
:104F6000DA60324B5B6B1846FEF79CFF2F4B012239
:104F700083F830202D4B002283F838202D4B0393EB
:104F80002A4B0122DA63042302939FED191B9FED44
:104F90001A0B0298FEF7ECFE0246039BDA60234BE5
:104FA0005B6C1846FEF77EFF204B012283F8402001
:104FB0001E4B00221A76204B01931C4B0122DA6112
:104FC0000223029301210298FEF7B4FD0246019BE1
:104FD000DA60164B012283F8202000BF05B05DF88F
:104FE00004FB00BFAFF300807B14AE47E17A743F4F
:104FF00000000000000049400000000000409F4009
:10500000080C002000004940D8AFF7FB59448E5FE0
:10501000F62449E4FFEB9A78500C0020640C002041
:1050200068EA0008B002002068250020D82400208B
:105030000025002010250020F024002008B5304B6A
:105040001B78002B0CD12E4B01221A702C4B5B6865
:10505000012B05D12A4B1B7A002B01D0FFF72EF82C
:10506000274B93F82830002B16D1254B012283F8CB
:105070002820234BDB6A012B0ED1214B93F83030D3
:10508000002B09D01E4B5B6B1846FEF73BFF1C4BF9
:105090005B6B1846FEF756FF194B93F83830002B20
:1050A00016D1174B012283F83820154BDB6B012BEF
:1050B0000ED1134B93F84030002B09D0104B5B6C92
:1050C0001846FEF71FFF0E4B5B6C1846FEF73AFFC3
:1050D0000B4B1B7E002B10D1094B01221A76084B7B
:1050E000DB69012B09D1064B93F82030002B04D04B
:1050F000034B5B6A1846FEF7F0FD00BF08BD00BF1A
:10510000D824002000B583B04FF000024FF0000318
:10511000CDE90023154B1B785A1CD1B2134A1170EC
:10512000002B09D0124B01221A60104B1B78013B57
:10513000DAB20E4B1A7016E062B600BF0D4B1B6858
:10514000D3E90823CDE90023FFF7AAF99DED000B71
:105150000020FFF7EBF872B600BF044B1B78013B51
:10516000DAB2024B1A7003B05DF804FB8C0C00201D
:10517000880C002064EA000800B585B0514B039309
:10518000514B029300238DF80730504B00221A70C8
:105190004F4B00221A7001DFFDF75EFC06F0D8F8D5
:1051A000FEF786FB4B4B1B6800221A600021002093
:1051B000FEF7C7FF03468DF807309DF90730002B37
:1051C00002D09DF9073078E0FFF722FE414B1B68C3
:1051D0005A68404B1B68383319461046FEF7BCFF2F
:1051E00003468DF807309DF90730002B0DD14FF0A5
:1051F000FF30FFF72DF8FFF743F90346002B04D0EB
:10520000344B1B68012283F840209DED030A06F011
:1052100017F9FFF73DF90346002B0CD1FFF730F9E2
:105220000346002B07D12B4B1B6893F84030002B13
:1052300001D1012300E00023DAB2254B1A7062B6D7
:1052400000BF30E0FFF7E8F803468DF80730FFF7BE
:105250001FF90346002B0AD1FFF712F90346002B72
:1052600005D11C4B1B6893F84030002B01D0012363
:1052700000E00023DAB2154B1A70144B1B78DBB236
:10528000002B0CBF01230023DBB21A46104B1A700F
:105290000E4B1B78DBB2002B05D00F4B1B680E4A60
:1052A00023F0010313600A4B1B78DBB2002BC9D13A
:1052B000FFF7C4FEFFF7C2F80023184605B05DF8FB
:1052C00004FB00BF0AD7A33B0000A842C925002069
:1052D000C825002064EA000810E000E000B587B0AF
:1052E000402303934FF000024FF00003CDE9042365
:1052F000039B202B0BD100F01FF810EE103A18463C
:1053000006F0DEFD02460B46CDE9042307E0094B1B
:10531000019300230093DDE90023CDE90423DDE9B7
:10532000042343EC172BB0EE470AF0EE670A07B0F0
:105330005DF804FB0000F07F82B04FF0FF43019363
:10534000019B07EE903AB0EE670A02B0704700008A
:1053500000B587B0402303934FF000024FF00003E5
:10536000CDE90423039B202B0BD100F01FF810EE96
:10537000103A184606F0A4FD02460B46CDE9042378
:1053800007E0094B019300230093DDE90023CDE9F9
:105390000423DDE9042343EC172BB0EE470AF0EEBB
:1053A000670A07B05DF804FB0000F0FF82B0044B11
:1053B0000193019B07EE903AB0EE670A02B0704786
:1053C000000080FF00B587B0402303934FF0000238
:1053D0004FF00003CDE90423039B202B0BD100F0F9
:1053E0001FF810EE103A184606F06AFD02460B460A
:1053F000CDE9042307E0094B019300230093DDE985
:105400000023CDE90423DDE9042343EC172BB0EEA0
:10541000470AF0EE670A07B05DF804FB0000F8FFEA
:1054200082B04FF000030193044B0193019B07EE00
:10543000903AB0EE670A02B0704700BF0000C0FFAC
:1054400000B583B00190FFF7BDFFB0EE407AF0EEFB
:10545000607A174B83ED007BFFF7E2FFF0EE407AB6
:10546000144BC3ED007AFFF739FFB0EE407AF0EE4F
:10547000607A114B83ED007BFFF75EFFF0EE407A20
:105480000E4BC3ED007AFFF763FFB0EE407AF0EE0B
:10549000607A0B4B83ED007BFFF788FFF0EE407ADC
:1054A000084BC3ED007A00BF03B05DF804FB00BFFA
:1054B000E0250020D0250020D8250020D42500207C
:1054C000E8250020F025002000B583B08DED000B0D
:1054D0000D4BD3E90023DDE9000106F0B1FF0346DF
:1054E000002B09D1094BD3E90023DDE9000106F0C7
:1054F000A7FF0346002B01D0012300E0002318463C
:1055000003B05DF804FB00BFD8250020E82500208B
:1055100000B587B08DED000B00238DF817304023C8
:105520000493049B202B0CD1DDE9000106F0F0FF71
:10553000034600EE103A00F023F803468DF81730CA
:1055400016E0DDE90023CDE90223039A0B4B13405B
:105550000A4A934209D1039BC3F31303002B02D1E0
:10556000029B002B01D0012300E000238DF81730AF
:105570009DF81730184607B05DF804FB0000F07F77
:1055800084B08DED010A019B0393039B03F0FF435D
:10559000B3F1FF4F06D1039BC3F31603002B01D0D9
:1055A000012300E00023DBB2184604B0704784B04A
:1055B000039002910192039B029A1A60039B0433A9
:1055C000019A1A6000BF04B070470000000000009C
:1055D00070B58AB08DED020B0346ADF80630BDF80C
:1055E0000630002B77D14FF00002414BDDE902017C
:1055F00006F0BEFC02460B46CDE906239FED381BA4
:105600009DED060B06F074F953EC102B104619466D
:1056100006F05EFF034605930023099332A3D3E906
:105620000023DDE9060106F033FF0346002B0ED010
:105630002DA3D3E90023DDE9060106F0C3FD0246F0
:105640000B461046194606F043FF03460993099A94
:1056500005992848FFF7ABFF274BD3E900014FF02E
:105660000002264B06F0ECFE0346002B2ED1224B07
:10567000D3E900014FF000024FF0404306F0E0FE96
:105680000346002B22D11C4BD3E90001DDE90223A4
:1056900006F0B6FA02460B4614461D464FF00002CD
:1056A000174BDDE9020106F063FC02460B460121BF
:1056B0000E462046294606F0CDFE0346002B01D1BA
:1056C00000231E46F3B21A460E4B1A700E49DDE94E
:1056D0000223C1E9002300BF0AB070BDAFF3008010
:1056E000000000000000F0410000E0FFFFFFEF417C
:1056F00000408F40B00C0020580400200000F0BF94
:105700000000B03CA40C0020B80C002000B585B00F
:10571000002302930023019300238DF80F301949D1
:105720004FF000024FF00003C1E9002301AA02ABD1
:105730001146184605F0B6FB029B019A1146184621
:1057400003F0C8FD03468DF80F309DF90F30002B94
:1057500002D09DF90F3010E001AA02AB11461846A5
:1057600005F0B2FB029B019A1146184600F0E8FED4
:1057700003468DF80F309DF90F30184605B05DF8DF
:1057800004FB00BFA80C002000B585B003468DF8CF
:10579000073000238DF80F3000238DF80E300020E5
:1057A000FDF774F900238DF80D3003F023FF034655
:1057B0008DF80F309DF90F30002B08D09DF90F3078
:1057C00013F1020F03D001238DF80E300DE09DF888
:1057D0000D30002B04D19DF90F3013F1020F01D0D1
:1057E000012300E000238DF80D309DF80E30002BD2
:1057F0001FD100F0D1FE03468DF80F309DF90F3018
:10580000002B08D09DF90F3013F1020F03D00123B4
:105810008DF80E300DE09DF80D30002B04D19DF970
:105820000F3013F1020F01D0012300E000238DF8A7
:105830000D309DF80E30002B1FD103F067FE03469C
:105840008DF80F309DF90F30002B08D09DF90F30E7
:1058500013F1020F03D001238DF80E300DE09DF8F7
:105860000D30002B04D19DF90F3013F1020F01D040
:10587000012300E000238DF80D309DF80730002B48
:1058800010D00020FDF702F99DF80E30002B03D157
:105890009DF80D30002B01D1012300E000238DF88D
:1058A0000E3002E001238DF80E309DF80E30002BF3
:1058B0003FF478AF9DF90F30184605B05DF804FB52
:1058C00000B583B000238DF80230314B1B78DBB27A
:1058D000002B02D0002000F053FF00F035FF0346FC
:1058E0008DF80330002301930FE00A20FDF7CEF876
:1058F000019B03F51C53103301930120FFF744FF74
:1059000000F022FF03468DF80330019B214A9342A9
:1059100003D89DF80330002BE7D100F01BFF0346AE
:105920008DF8023003F0A2FF03468DF802301A4BC7
:1059300000221A70194B00221A70194B00221A60AB
:10594000184B00221A60184B00221A60174B0022D5
:105950001A60174B00221A6016494FF000024FF0F0
:105960004043C1E900230A4B00221A70082200219B
:10597000114807F0B1FC11494FF000024FF000034D
:10598000C1E900239DF90230184603B05DF804FB1D
:10599000A40C0020FF2C31018D0C00208E0C002067
:1059A000900C0020940C0020980C00209C0C0020EF
:1059B000A00C002058040020B00C0020B80C0020DF
:1059C00000B587B0634B1B680593059B002B00F067
:1059D000BC80614B1B78DBB2002B04D15D4B1B6894
:1059E000002B00F0B2805D4B1B78DBB2022B40F045
:1059F000AC805B4B1B78002B40F0A780059BD3E964
:105A00000023CDE90223574B1B78002B00F08E803A
:105A1000554B1B78DBB2002B04D0534B1B78DBB209
:105A2000022B01D1012300E000238DF807304E4BFB
:105A30001B78DBB2012B04D04B4B1B78DBB2022B63
:105A400001D1012300E000238DF806309DF80730D6
:105A5000002B33D0454BD3E90023DDE9020106F0EA
:105A60000DFD0346002B0AD0414BD3E900013F4B0B
:105A7000D3E9002306F0EEFC0346002B14D13B4B88
:105A8000D3E90023DDE9020106F002FD0346002B05
:105A900014D0374BD3E90001344BD3E9002306F08F
:105AA000CFFC0346002B09D0324B1B68002B02D1E0
:105AB000314B01221A702A4B01221A709DF80630D0
:105AC000002B33D0294BD3E90023DDE9020106F096
:105AD000C1FC0346002B0AD0254BD3E90001234B20
